9047207417058      1705800400     0000      0000000000000000006M4998AT      001                                                                                         
05004221513791348458000Z N70000017058801380030167100556210227000023175000704000000001500702POS    MEDIA                          SG 531100000     1008N6637805   056356B
0501            000000                                                          CARD ACCEPTOR          000000000000              0                           0000000000 
0505017058055340257000007900000704          0000 000000000000                              000000000000000 0000000000000000000000000000F             0000000000000000   
050700001161219E0B8C8704        76DCB53A00037C00C72993AA173056AA010A000000800003A02002000000000000                                                                      
05004221513791348458000Z N70000017058801380030167100556210227000047380000704000000002000840POS    MEDIA                          US 531100000     1008N6647205   056356B
0501            000000                                                          CARD ACCEPTOR          000000000000              0                           0000000000 
0505017058056300259000007900000704          0000 000000000000                              000000000000000 0000000000000000000000000000F             0000000000000000   
050700001161219E0B8C8704        76DCB53A00037C00C72993AA173056AA010A000000800003A02002000000000000                                                                      
07004221511137634458000Z N74067717058801380030167100556210227000002000000704000002000000704ATM VCB                               VN 601100000     1008N6666505 1 056307H
0701            000000                                                          CARD ACCEPTOR  12345678000000000000  000000      0                           000000000  
070501705805820026100000000000070400        0000 000000000000                              000000000000000 0000000000000000000000000000F             0000000000000000   
070700001161031E0B0C8704        76441645003E7C003469F8E11EAE6061010A000000880003A02002000010900000                  06                                                  
07004221511137634458000Z N70000017058801380030167100556210227000071070000704000000003000840Bank of America                       US 601100000     1008N6674905 1 056307H
0701            000000                                                          CARD ACCEPTOR  12345678000000000000  000000      0                           000000000  
070501705805907026300000000000070400        0000 000000000000                              000000000000000 0000000000000000000000000000F             0000000000000000   
070700001161031E0B0C8704        76441645003E7C003469F8E11EAE6061010A000000880003A02002000010900000                  06                                                  
07004720750620233313000Z N70000017058801380030167100556210227000070449000704000000003000840Bank of America                       US 601100000     1008N4757955 1 056307H
0701            000000                                                          CARD ACCEPTOR  12345678000000000000  000000      0                           000000000  
070501705806040026900000000000070400        0000 000000000000                              000000000000000 0000000000000000000000000000F             0000000000000000   
070700001161031E0B0C8704        76441645003E7C003469F8E11EAE6061010A000000880003A02002000010900000                  06                                                  
910047207417058000011260292759000000000037000125000000000133000000        000000038000000000000000000000000281889999000000000000000000000000000000000000000000000       
920047207417058004978375234180000000024514000125000000091739000000        000028430000000000000000000004201706912335000000000000000000000000000000000000000000000       
